module Address = Address
module Hash = EzHash
module Hex = EzHex.Hex
module Jsonrpc = Jsonrpc

(* {
     iat: 1663725452,
     aud: 'BEKVndAJ1syCn1QeSXAHOC9FEgCyvaVRvzLGV5X7CGbGk3_97CIZfc22tBMWbcfoENsGoGSIqQ5bbd62az0ggYA',
     nonce: '026c66fd0b124c0dcbc12e14dd46da15eb40a416fcb171542037e3930aad3f230e',
     iss: 'https://api.openlogin.com',
     wallets: [
       {
         public_key: '02f7737e45b43dce88b03a0efba377b733dc21a65559fda9f015c3532337877619',
         type: 'web3auth_app_key',
         curve: 'secp256k1'
       }
     ],
     email: 'dennis@yomigames.gg',
     name: 'Dennis Dang',
     profileImage: 'https://lh3.googleusercontent.com/a/ALm5wu2CzzuzNgA-1IBsEV9G0q8DjkD1MH6Onh2n8mBO=s96-c',
     verifier: 'torus',
     verifierId: 'dennis@yomigames.gg',
     aggregateVerifier: 'tkey-google-lrc',
     exp: 1663811852
   } *)

(*address "0x1b64C49b4B6C195DC2475C41E3DD01Cc5bA459C9" *)

(* signed message "0x54c9e2ac1da4bbe572f4d26e84802839b089edf8e0dbccc61286be5aba9f26a4106ffefc1bd83d5ebb94b92faf47801aaf9da1f0b1f72e2c9776c8a456a832f31b" *)
(* signed tx "0x02f87481898085070218df4785070218df58825208941b64c49b4b6c195dc2475c41e3dd01cc5ba459c9872386f26fc1000080c080a0a55181db2941aac64cfc729428ff9eab753cb4cc6e8fe5ca9a2f09d63f890ab9a01e9b5ea17f6597604fca1f9dd8b4478c7baecf452d47e213e1eafe8c248479b1" *)